{"abi":[{"type":"constructor","inputs":[{"name":"entranceFee","type":"uint256","internalType":"uint256"},{"name":"interval","type":"uint256","internalType":"uint256"},{"name":"vrfCoordinator","type":"address","internalType":"address"},{"name":"gasLane","type":"bytes32","internalType":"bytes32"},{"name":"subscriptionId","type":"uint64","internalType":"uint64"},{"name":"callbackGasLimit","type":"uint32","internalType":"uint32"}],"stateMutability":"nonpayable"},{"type":"function","name":"checkUpkeep","inputs":[{"name":"","type":"bytes","internalType":"bytes"}],"outputs":[{"name":"upkeepNeeded","type":"bool","internalType":"bool"},{"name":"","type":"bytes","internalType":"bytes"}],"stateMutability":"view"},{"type":"function","name":"enterRaffle","inputs":[],"outputs":[],"stateMutability":"payable"},{"type":"function","name":"getEntranceFee","inputs":[],"outputs":[{"name":"","type":"uint256","internalType":"uint256"}],"stateMutability":"view"},{"type":"function","name":"getLastTimeStamp","inputs":[],"outputs":[{"name":"","type":"uint256","internalType":"uint256"}],"stateMutability":"view"},{"type":"function","name":"getLengthOfPlayers","inputs":[],"outputs":[{"name":"","type":"uint256","internalType":"uint256"}],"stateMutability":"view"},{"type":"function","name":"getPlayer","inputs":[{"name":"indexOfPlayer","type":"uint256","internalType":"uint256"}],"outputs":[{"name":"","type":"address","internalType":"address"}],"stateMutability":"view"},{"type":"function","name":"getRaffleState","inputs":[],"outputs":[{"name":"","type":"uint8","internalType":"enum Raffle.RaffleState"}],"stateMutability":"view"},{"type":"function","name":"getRecentWinner","inputs":[],"outputs":[{"name":"","type":"address","internalType":"address"}],"stateMutability":"view"},{"type":"function","name":"performUpkeep","inputs":[{"name":"","type":"bytes","internalType":"bytes"}],"outputs":[],"stateMutability":"nonpayable"},{"type":"function","name":"rawFulfillRandomWords","inputs":[{"name":"requestId","type":"uint256","internalType":"uint256"},{"name":"randomWords","type":"uint256[]","internalType":"uint256[]"}],"outputs":[],"stateMutability":"nonpayable"},{"type":"event","name":"EnteredRaffle","inputs":[{"name":"player","type":"address","indexed":true,"internalType":"address"}],"anonymous":false},{"type":"event","name":"PickedWinner","inputs":[{"name":"winner","type":"address","indexed":true,"internalType":"address"}],"anonymous":false},{"type":"event","name":"RequestedRaffleWinner","inputs":[{"name":"requestId","type":"uint256","indexed":true,"internalType":"uint256"}],"anonymous":false},{"type":"error","name":"OnlyCoordinatorCanFulfill","inputs":[{"name":"have","type":"address","internalType":"address"},{"name":"want","type":"address","internalType":"address"}]},{"type":"error","name":"Raffle_NotEnoughEthSent","inputs":[]},{"type":"error","name":"Raffle_RaffleNotOpen","inputs":[]},{"type":"error","name":"Raffle_TransferFailed","inputs":[]},{"type":"error","name":"Raffle_UpKeepNotNeeded","inputs":[{"name":"currentBalance","type":"uint256","internalType":"uint256"},{"name":"numPlayers","type":"uint256","internalType":"uint256"},{"name":"raffleState","type":"uint256","internalType":"uint256"}]}],"bytecode":{"object":"0x6101606040523480156200001257600080fd5b506040516200174438038062001744833981810160405281019062000038919062000294565b838073ffffffffffffffffffffffffffffffffffffffff1660808173ffffffffffffffffffffffffffffffffffffffff1681525050508560a081815250508460c081815250508373ffffffffffffffffffffffffffffffffffffffff1660e08173ffffffffffffffffffffffffffffffffffffffff16815250508261010081815250508167ffffffffffffffff166101208167ffffffffffffffff16815250508063ffffffff166101408163ffffffff16815250506000600260146101000a81548160ff0219169083600181111562000116576200011562000330565b5b0217905550426001819055505050505050506200035f565b600080fd5b6000819050919050565b620001488162000133565b81146200015457600080fd5b50565b60008151905062000168816200013d565b92915050565b600073ffffffffffffffffffffffffffffffffffffffff82169050919050565b60006200019b826200016e565b9050919050565b620001ad816200018e565b8114620001b957600080fd5b50565b600081519050620001cd81620001a2565b92915050565b6000819050919050565b620001e881620001d3565b8114620001f457600080fd5b50565b6000815190506200020881620001dd565b92915050565b600067ffffffffffffffff82169050919050565b6200022d816200020e565b81146200023957600080fd5b50565b6000815190506200024d8162000222565b92915050565b600063ffffffff82169050919050565b6200026e8162000253565b81146200027a57600080fd5b50565b6000815190506200028e8162000263565b92915050565b60008060008060008060c08789031215620002b457620002b36200012e565b5b6000620002c489828a0162000157565b9650506020620002d789828a0162000157565b9550506040620002ea89828a01620001bc565b9450506060620002fd89828a01620001f7565b93505060806200031089828a016200023c565b92505060a06200032389828a016200027d565b9150509295509295509295565b7f4e487b7100000000000000000000000000000000000000000000000000000000600052602160045260246000fd5b60805160a05160c05160e05161010051610120516101405161137c620003c860003960006105f6015260006105d3015260006105b201526000610576015260006106e1015260008181610248015261035101526000818161029101526102e5015261137c6000f3fe6080604052600436106100915760003560e01c80634585e33b116100595780634585e33b1461014a578063473f1ddc146101735780636e04ff0d1461019e578063c1c244e8146101dc578063e55ae4e81461020757610091565b806309bc33a7146100965780630ea3df38146100c1578063115cbaf5146100ec5780631fe543e3146101175780632cfcc53914610140575b600080fd5b3480156100a257600080fd5b506100ab610244565b6040516100b89190610b06565b60405180910390f35b3480156100cd57600080fd5b506100d661026c565b6040516100e39190610b06565b60405180910390f35b3480156100f857600080fd5b50610101610278565b60405161010e9190610b98565b60405180910390f35b34801561012357600080fd5b5061013e60048036038101906101399190610d4c565b61028f565b005b61014861034f565b005b34801561015657600080fd5b50610171600480360381019061016c9190610e03565b6104be565b005b34801561017f57600080fd5b506101886106af565b6040516101959190610e91565b60405180910390f35b3480156101aa57600080fd5b506101c560048036038101906101c09190610f61565b6106d9565b6040516101d3929190611044565b60405180910390f35b3480156101e857600080fd5b506101f16107c2565b6040516101fe9190610b06565b60405180910390f35b34801561021357600080fd5b5061022e60048036038101906102299190611074565b6107ce565b60405161023b9190610e91565b60405180910390f35b60007f0000000000000000000000000000000000000000000000000000000000000000905090565b60008080549050905090565b6000600260149054906101000a900460ff16905090565b7f000000000000000000000000000000000000000000000000000000000000000073ffffffffffffffffffffffffffffffffffffffff163373ffffffffffffffffffffffffffffffffffffffff161461034157337f00000000000000000000000000000000000000000000000000000000000000006040517f1cf993f40000000000000000000000000000000000000000000000000000000081526004016103389291906110a1565b60405180910390fd5b61034b8282610815565b5050565b7f00000000000000000000000000000000000000000000000000000000000000003410156103a9576040517f1329751200000000000000000000000000000000000000000000000000000000815260040160405180910390fd5b600060018111156103bd576103bc610b21565b5b600260149054906101000a900460ff1660018111156103df576103de610b21565b5b14610416576040517f6eac21ed00000000000000000000000000000000000000000000000000000000815260040160405180910390fd5b6000339080600181540180825580915050600190039060005260206000200160009091909190916101000a81548173ffffffffffffffffffffffffffffffffffffffff021916908373ffffffffffffffffffffffffffffffffffffffff1602179055503373ffffffffffffffffffffffffffffffffffffffff167f819fbd717c9d0b421352c5116a644ca68ba176960c33f406f08d98a27370ca2760405160405180910390a2565b60006104d8604051806020016040528060008152506106d9565b509050806105475747600080549050600260149054906101000a900460ff16600181111561050957610508610b21565b5b6040517fc61de3e100000000000000000000000000000000000000000000000000000000815260040161053e939291906110ca565b60405180910390fd5b6001600260146101000a81548160ff0219169083600181111561056d5761056c610b21565b5b021790555060007f000000000000000000000000000000000000000000000000000000000000000073ffffffffffffffffffffffffffffffffffffffff16635d3b1d307f00000000000000000000000000000000000000000000000000000000000000007f000000000000000000000000000000000000000000000000000000000000000060037f000000000000000000000000000000000000000000000000000000000000000060016040518663ffffffff1660e01b8152600401610637959493929190611179565b6020604051808303816000875af1158015610656573d6000803e3d6000fd5b505050506040513d601f19601f8201168201806040525081019061067a91906111e1565b9050807fcd6e45c8998311cab7e9d4385596cac867e20a0587194b954fa3a731c93ce78b60405160405180910390a250505050565b6000600260009054906101000a900473ffffffffffffffffffffffffffffffffffffffff16905090565b6000606060007f00000000000000000000000000000000000000000000000000000000000000006001544261070e919061123d565b101590506000600260149054906101000a900460ff16600181111561073657610735610b21565b5b6000600181111561074a57610749610b21565b5b1490506000804711905060008060008054905011905083801561076a5750825b80156107735750815b801561077c5750805b9550856040518060400160405280600381526020017f30783000000000000000000000000000000000000000000000000000000000008152509550955050505050915091565b60008080549050905090565b60008082815481106107e3576107e2611271565b5b9060005260206000200160009054906101000a900473ffffffffffffffffffffffffffffffffffffffff169050919050565b60008080549050826000815181106108305761082f611271565b5b602002602001015161084291906112cf565b9050600080828154811061085957610858611271565b5b9060005260206000200160009054906101000a900473ffffffffffffffffffffffffffffffffffffffff16905080600260006101000a81548173ffffffffffffffffffffffffffffffffffffffff021916908373ffffffffffffffffffffffffffffffffffffffff1602179055506000600260146101000a81548160ff021916908360018111156108ed576108ec610b21565b5b0217905550600067ffffffffffffffff81111561090d5761090c610c09565b5b60405190808252806020026020018201604052801561093b5781602001602082028036833780820191505090505b5060009080519060200190610951929190610a46565b50426001819055508073ffffffffffffffffffffffffffffffffffffffff167fb112587e57bfa970257f3d54fc52859c6300f6bd7a982462c320fed45c2530ed60405160405180910390a260008173ffffffffffffffffffffffffffffffffffffffff16476040516109c290611331565b60006040518083038185875af1925050503d80600081146109ff576040519150601f19603f3d011682016040523d82523d6000602084013e610a04565b606091505b5050905080610a3f576040517fba31c4f300000000000000000000000000000000000000000000000000000000815260040160405180910390fd5b5050505050565b828054828255906000526020600020908101928215610abf579160200282015b82811115610abe5782518260006101000a81548173ffffffffffffffffffffffffffffffffffffffff021916908373ffffffffffffffffffffffffffffffffffffffff16021790555091602001919060010190610a66565b5b509050610acc9190610ad0565b5090565b5b80821115610ae9576000816000905550600101610ad1565b5090565b6000819050919050565b610b0081610aed565b82525050565b6000602082019050610b1b6000830184610af7565b92915050565b7f4e487b7100000000000000000000000000000000000000000000000000000000600052602160045260246000fd5b60028110610b6157610b60610b21565b5b50565b6000819050610b7282610b50565b919050565b6000610b8282610b64565b9050919050565b610b9281610b77565b82525050565b6000602082019050610bad6000830184610b89565b92915050565b6000604051905090565b600080fd5b600080fd5b610bd081610aed565b8114610bdb57600080fd5b50565b600081359050610bed81610bc7565b92915050565b600080fd5b6000601f19601f8301169050919050565b7f4e487b7100000000000000000000000000000000000000000000000000000000600052604160045260246000fd5b610c4182610bf8565b810181811067ffffffffffffffff82111715610c6057610c5f610c09565b5b80604052505050565b6000610c73610bb3565b9050610c7f8282610c38565b919050565b600067ffffffffffffffff821115610c9f57610c9e610c09565b5b602082029050602081019050919050565b600080fd5b6000610cc8610cc384610c84565b610c69565b90508083825260208201905060208402830185811115610ceb57610cea610cb0565b5b835b81811015610d145780610d008882610bde565b845260208401935050602081019050610ced565b5050509392505050565b600082601f830112610d3357610d32610bf3565b5b8135610d43848260208601610cb5565b91505092915050565b60008060408385031215610d6357610d62610bbd565b5b6000610d7185828601610bde565b925050602083013567ffffffffffffffff811115610d9257610d91610bc2565b5b610d9e85828601610d1e565b9150509250929050565b600080fd5b60008083601f840112610dc357610dc2610bf3565b5b8235905067ffffffffffffffff811115610de057610ddf610da8565b5b602083019150836001820283011115610dfc57610dfb610cb0565b5b9250929050565b60008060208385031215610e1a57610e19610bbd565b5b600083013567ffffffffffffffff811115610e3857610e37610bc2565b5b610e4485828601610dad565b92509250509250929050565b600073ffffffffffffffffffffffffffffffffffffffff82169050919050565b6000610e7b82610e50565b9050919050565b610e8b81610e70565b82525050565b6000602082019050610ea66000830184610e82565b92915050565b600080fd5b600067ffffffffffffffff821115610ecc57610ecb610c09565b5b610ed582610bf8565b9050602081019050919050565b82818337600083830152505050565b6000610f04610eff84610eb1565b610c69565b905082815260208101848484011115610f2057610f1f610eac565b5b610f2b848285610ee2565b509392505050565b600082601f830112610f4857610f47610bf3565b5b8135610f58848260208601610ef1565b91505092915050565b600060208284031215610f7757610f76610bbd565b5b600082013567ffffffffffffffff811115610f9557610f94610bc2565b5b610fa184828501610f33565b91505092915050565b60008115159050919050565b610fbf81610faa565b82525050565b600081519050919050565b600082825260208201905092915050565b60005b83811015610fff578082015181840152602081019050610fe4565b60008484015250505050565b600061101682610fc5565b6110208185610fd0565b9350611030818560208601610fe1565b61103981610bf8565b840191505092915050565b60006040820190506110596000830185610fb6565b818103602083015261106b818461100b565b90509392505050565b60006020828403121561108a57611089610bbd565b5b600061109884828501610bde565b91505092915050565b60006040820190506110b66000830185610e82565b6110c36020830184610e82565b9392505050565b60006060820190506110df6000830186610af7565b6110ec6020830185610af7565b6110f96040830184610af7565b949350505050565b6000819050919050565b61111481611101565b82525050565b600067ffffffffffffffff82169050919050565b6111378161111a565b82525050565b600061ffff82169050919050565b6111548161113d565b82525050565b600063ffffffff82169050919050565b6111738161115a565b82525050565b600060a08201905061118e600083018861110b565b61119b602083018761112e565b6111a8604083018661114b565b6111b5606083018561116a565b6111c2608083018461116a565b9695505050505050565b6000815190506111db81610bc7565b92915050565b6000602082840312156111f7576111f6610bbd565b5b6000611205848285016111cc565b91505092915050565b7f4e487b7100000000000000000000000000000000000000000000000000000000600052601160045260246000fd5b600061124882610aed565b915061125383610aed565b925082820390508181111561126b5761126a61120e565b5b92915050565b7f4e487b7100000000000000000000000000000000000000000000000000000000600052603260045260246000fd5b7f4e487b7100000000000000000000000000000000000000000000000000000000600052601260045260246000fd5b60006112da82610aed565b91506112e583610aed565b9250826112f5576112f46112a0565b5b828206905092915050565b600081905092915050565b50565b600061131b600083611300565b91506113268261130b565b600082019050919050565b600061133c8261130e565b915081905091905056fea26469706673582212207449360fabfd7f1f843699a658b07abbeef3976c739ee932547f0096b9ae7c6964736f6c63430008130033","linkReferences":{}},"methodIdentifiers":{"checkUpkeep(bytes)":"6e04ff0d","enterRaffle()":"2cfcc539","getEntranceFee()":"09bc33a7","getLastTimeStamp()":"c1c244e8","getLengthOfPlayers()":"0ea3df38","getPlayer(uint256)":"e55ae4e8","getRaffleState()":"115cbaf5","getRecentWinner()":"473f1ddc","performUpkeep(bytes)":"4585e33b","rawFulfillRandomWords(uint256,uint256[])":"1fe543e3"},"id":30}